S01E0000476573747572655F436F6E74726F6C6C65645F4361722E737265633D
S11300000C942A000C943F000C943F000C943F0085
S11300100C943F000C943F000C943F000C943F0060
S11300200C943F000C943F000C943F000C943F0050
S11300300C943F000C943F000C943F000C943F0040
S11300400C943F000C943F000C943F000C943F0030
S11300500C943F0011241FBECFE5D8E0DEBFCDBF16
S113006010E0A0E6B0E0EAE6FAE002C005900D92E6
S1130070A43FB107D9F70E94CE030C9433050C9426
S113008000001F93CF93DF930097A1F1162FEC018B
S11300906A8167708881412F41708F700E94A40427
S11300A06A816695669566956770888111FB442719
S11300B040F98F700E94A4046A81862F82958695E8
S11300C0869583706B816170660F660F682B8881DB
S11300D012FB442740F98F700E94A4046B8166953B
S11300E06770888113FB442740F98F700E94A40431
S11300F081E001C080E0DF91CF911F910895CF93FB
S1130100DF930097E9F0EC016B8162956F70677083
S1130110888141E082958F700E94A4048FE493EC5F
S11301200197F1F700C000006B8162956F706770F2
S1130130888140E082958F700E94A40481E001C010
S113014080E0DF91CF9108951F93CF93DF930097C1
S113015049F1162FEC016B81862F881F8827881F91
S11301606C816370660F682B898140E08F700E94F8
S1130170A404612F62956F70CE010E944100CE01EC
S11301800E947F00612F6F70CE010E944100CE015A
S11301900E947F0083EF91E00197F1F700C0000017
S11301A081E001C080E0DF91CF911F910895CF934A
S11301B0DF93EC016B8162956F706770888141E019
S11301C082958F700E9466046B81862F881F882712
S11301D0881F6C816370660F682B898141E08F7082
S11301E00E9466046C81669566956770898141E01A
S11301F082958F700E9466046A816770888141E0ED
S11302008F700E9466046A8166956695669567702C
S1130210888141E08F700E9466046A81862F8295EE
S11302208695869583706B816170660F660F682B67
S1130230888141E08F700E9466046B8166956770C7
S1130240888141E08F700E9466048FE097E20197F5
S1130250F1F700C000006B8162956F706770888150
S113026040E082958F700E94A4046B81862F881FC2
S11302708827881F6C816370660F682B898140E032
S11302808F700E94A4046C8166956695677089815D
S113029040E082958F700E94A4046A81677088810F
S11302A041E08F700E94A4046A8166956695669504
S11302B06770888141E08F700E94A4046A81862F50
S11302C082958695869583706B816170660F660F43
S11302D0682B888140E08F700E94A4046B8166952E
S11302E06770888140E08F700E94A404CE010E9450
S11302F07F0081EE94E00197F1F700C000006B816C
S113030062956F706770888140E082958F700E945B
S1130310A4046B81862F881F8827881F6C816370D3
S1130320660F682B898140E08F700E94A4046C8161
S1130330669566956770898140E082958F700E940A
S1130340A4046A816770888141E08F700E94A404CC
S11303506A816695669566956770888141E08F70BD
S11303600E94A4046A81862F82958695869583705F
S11303706B816170660F660F682B888140E08F7017
S11303800E94A4046B8166956770888140E08F7039
S11303900E94A404CE010E947F0092E39A95F1F793
S11303A06B8162956F706770888140E082958F7071
S11303B00E94A4046B81862F881F8827881F6C8164
S11303C06370660F682B898140E08F700E94A404DB
S11303D06C81669566956770898140E082958F701F
S11303E00E94A4046A816770888141E08F700E9432
S11303F0A4046A816695669566956770888141E074
S11304008F700E94A4046A81862F829586958695B2
S113041083706B816170660F660F682B888140E082
S11304208F700E94A4046B8166956770888140E098
S11304308F700E94A404CE010E947F0061E0CE016F
S11304400E94A40089EF90E00197F1F700C000003A
S113045062E0CE010E94A40089EF90E00197F1F7D9
S113046000C0000066E0CE010E94A40089EF90E085
S11304700197F1F700C000006CE0CE010E94A400D7
S113048089EF90E00197F1F700C000006CE1CE0124
S11304900E94A40089EF90E00197F1F700C00000EA
S11304A068E2CE010E94A40089EF90E00197F1F781
S11304B000C0000060E8CE010E94A40089EF90E033
S11304C00197F1F700C00000DF91CF9108950097E4
S11304D021F00E94D70081E0089580E00895623001
S11304E071F018F4613031F00895633069F06430CC
S11304F081F008956FE7640F0E94A40008956FEBE4
S1130500640F0E94A400089563E9640F0E94A4008C
S1130510089563ED640F0E94A40008951F93CF9380
S1130520DF93009719F1162FEC016B81862F881F3A
S11305308827881F6C816370660F682B898141E06E
S11305408F700E94A404612F62956F70CE010E9487
S11305504100CE010E947F00612F6F70CE010E9486
S11305604100CE010E947F0081E001C080E0DF9164
S1130570CF911F910895EF92FF920F931F93CF9302
S1130580DF938C01F62EE42EE9010097C9F062E0B6
S11305900E94A4004E2D6F2DC8010E946F0280E0BE
S11305A00BC02196C8010E948E0289EF90E001974A
S11305B0F1F700C0000081E068816111F2CF01C051
S11305C080E0DF91CF911F910F91FF90EF900895FC
S11305D0CF93DF93009749F0EC010E942C03CE01E6
S11305E001960E942C0381E001C080E0DF91CF914D
S11305F00895CF93DF93009749F0EC010E945403D0
S1130600CE0101960E94730381E001C080E0DF9176
S1130610CF910895CF93DF93009749F0EC010E94A6
S11306207303CE0101960E94540381E001C080E06F
S1130630DF91CF910895CF93DF93009749F0EC01B8
S11306400E947303CE0101960E94730381E001C0EE
S113065080E0DF91CF910895CF93DF93FC01892B44
S1130660E9F080818F70282F30E024303105C4F404
S1130670EF01608162956F70677041E00E946604CB
S11306808881682F62956F70677040E08F700E9458
S1130690A40488818F77888381E003C080E001C04F
S11306A080E0DF91CF910895CF93DF93FC01892BF4
S11306B0A1F080818F70282F30E0243031057CF444
S11306C0EF01608162956F70677041E00E94A4043D
S11306D088818068888381E003C080E001C080E075
S11306E0DF91CF910895CF93DF93FC01892BA1F083
S11306F080818F70282F30E0243031057CF4EF01A5
S1130700608162956F70677040E00E94A4048881E4
S11307108F77888381E003C080E001C080E0DF91AF
S1130720CF91089587E690E00E94E80285E690E084
S11307300E94E80280E690E00E9467020E94E204C0
S1130740089587E690E00E94F90285E690E00E9411
S1130750F902089587E690E00E940A0385E690E096
S11307600E940A03089587E690E00E94F90285E654
S113077090E00E941B03089585E690E00E94F90230
S113078087E690E00E941B03089587E690E00E94AC
S11307901B0385E690E00E941B0308950E949203C8
S11307A041E067E082E00E94660441E067E082E0A5
S11307B00E94A4042FEF83ED90E3215080409040E9
S11307C0E1F700C0000040E067E082E00E94A4047A
S11307D02FEF83ED90E3215080409040E1F700C07B
S11307E000000E9417058C3609F448C028F48236AC
S11307F0E9F0863639F0D9CF823761F1833709F4CD
S113080051C0D3CF61E080E690E00E94A40029E6C5
S113081030E040E060E080E690E00E94BB0286E7C2
S113082090E00E9420050E94A103BFCF61E080E612
S113083090E00E94A40024E830E040E060E080E61C
S113084090E00E94BB0282E990E00E9420050E9491
S1130850AA03ABCF61E080E690E00E94A40021EA05
S113086030E040E060E080E690E00E94BB028CEA69
S113087090E00E9420050E94B30397CF61E080E6D8
S113088090E00E94A40028EB30E040E060E080E6C5
S113089090E00E94BB0282EC90E00E9420050E943E
S11308A0BC0383CF61E080E690E00E94A4002DECBD
S11308B030E040E060E080E690E00E94BB0288ED1A
S11308C090E00E9420050E94C5036FCF8430A0F5FC
S11308D06830A0F54230A0F5442319F04130B9F056
S11308E031C0E82FF0E0EE0FFF1FE451FF4F0190FD
S11308F0F081E02D208181E090E002C0880F991FF3
S11309006A95E2F780958223808381E00895E82F39
S1130910F0E0EE0FFF1FE451FF4F0190F081E02D56
S1130920208181E090E002C0880F991F6A95E2F768
S1130930822B808381E0089580E0089580E008950B
S113094080E0089581E008958430A0F56830A0F532
S11309504230A0F5442319F04130B9F031C0E82FFA
S1130960F0E0EE0FFF1FEC51FF4F0190F081E02DFE
S1130970208181E090E002C0880F991F6A95E2F718
S113098080958223808381E00895E82FF0E0EE0FC4
S1130990FF1FEC51FF4F0190F081E02D208181E099
S11309A090E002C0880F991F6A95E2F7822B80833A
S11309B081E0089580E0089580E0089580E008953E
S11309C081E0089541E060E083E00E94660440E035
S11309D061E083E00E9466048AB180618AB98AB1C9
S11309E088608AB980B58F7780BD80B58F7B80BDE4
S11309F080B58F7D80BD80B58F7E80BD80B5877FBB
S1130A0080BD80B5846080BD80B5826080BD80B5C6
S1130A108B7F80BD87E689B910BC08959BB195FB97
S1130A20992790F99BB99923C9F38CB908958BB18F
S1130A30881F8827881F8BB98823C9F38CB1089530
S1130A400F931F93CF938C01C0E003C00E940E0547
S1130A50CF5FF801EC0FF11D80818111F7CFCF91A9
S10D0A601F910F910895F894FFCF41
S1130A6A1011ACBF08526242324D6F766520466F50
S1130A7A7277617264004D6F766520466F72776192
S1130A8A72640A004D6F7665204261636B77617206
S1130A9A64004D6F7665204261636B776172640A04
S1130AAA004D6F7665205269676874004D6F7665EC
S1130ABA2052696768740A004D6F7665206C656612
S1130ACA74004D6F7665206C6566740A0053746F02
S1130ADA7020526F626F740053746F7020526F6289
S1130AEA6F740A003B003800350032003A003700C0
S1070AFA340031008F
S9030000FC
